{
  "_format": "hh-sol-artifact-1",
  "contractName": "AskOnChain",
  "sourceName": "contracts/AskOnChain.sol",
  "abi": [
    {
      "inputs": [],
      "stateMutability": "nonpayable",
      "type": "constructor"
    },
    {
      "anonymous": false,
      "inputs": [
        {
          "indexed": true,
          "internalType": "address",
          "name": "by",
          "type": "address"
        },
        {
          "indexed": false,
          "internalType": "uint256",
          "name": "id",
          "type": "uint256"
        },
        {
          "indexed": false,
          "internalType": "string",
          "name": "answer",
          "type": "string"
        }
      ],
      "name": "NewAnswer",
      "type": "event"
    },
    {
      "anonymous": false,
      "inputs": [
        {
          "indexed": true,
          "internalType": "address",
          "name": "from",
          "type": "address"
        },
        {
          "indexed": true,
          "internalType": "address",
          "name": "to",
          "type": "address"
        },
        {
          "indexed": false,
          "internalType": "uint256",
          "name": "id",
          "type": "uint256"
        },
        {
          "indexed": false,
          "internalType": "string",
          "name": "question",
          "type": "string"
        }
      ],
      "name": "NewQuestion",
      "type": "event"
    },
    {
      "inputs": [
        {
          "internalType": "uint256",
          "name": "_id",
          "type": "uint256"
        },
        {
          "internalType": "string",
          "name": "_answer",
          "type": "string"
        }
      ],
      "name": "answerQuestion",
      "outputs": [],
      "stateMutability": "nonpayable",
      "type": "function"
    },
    {
      "inputs": [
        {
          "internalType": "address",
          "name": "_to",
          "type": "address"
        },
        {
          "internalType": "uint256",
          "name": "_id",
          "type": "uint256"
        }
      ],
      "name": "getQuestionByID",
      "outputs": [
        {
          "components": [
            {
              "internalType": "uint256",
              "name": "id",
              "type": "uint256"
            },
            {
              "internalType": "address",
              "name": "from",
              "type": "address"
            },
            {
              "internalType": "string",
              "name": "question",
              "type": "string"
            },
            {
              "internalType": "string",
              "name": "answer",
              "type": "string"
            },
            {
              "internalType": "bool",
              "name": "isAnswered",
              "type": "bool"
            }
          ],
          "internalType": "struct AskOnChain.Question",
          "name": "",
          "type": "tuple"
        }
      ],
      "stateMutability": "view",
      "type": "function"
    },
    {
      "inputs": [
        {
          "internalType": "address",
          "name": "_to",
          "type": "address"
        }
      ],
      "name": "getQuestionsByUserReceived",
      "outputs": [
        {
          "components": [
            {
              "internalType": "uint256",
              "name": "id",
              "type": "uint256"
            },
            {
              "internalType": "address",
              "name": "from",
              "type": "address"
            },
            {
              "internalType": "string",
              "name": "question",
              "type": "string"
            },
            {
              "internalType": "string",
              "name": "answer",
              "type": "string"
            },
            {
              "internalType": "bool",
              "name": "isAnswered",
              "type": "bool"
            }
          ],
          "internalType": "struct AskOnChain.Question[]",
          "name": "",
          "type": "tuple[]"
        }
      ],
      "stateMutability": "view",
      "type": "function"
    },
    {
      "inputs": [
        {
          "internalType": "address",
          "name": "",
          "type": "address"
        },
        {
          "internalType": "uint256",
          "name": "",
          "type": "uint256"
        }
      ],
      "name": "questions",
      "outputs": [
        {
          "internalType": "uint256",
          "name": "id",
          "type": "uint256"
        },
        {
          "internalType": "address",
          "name": "from",
          "type": "address"
        },
        {
          "internalType": "string",
          "name": "question",
          "type": "string"
        },
        {
          "internalType": "string",
          "name": "answer",
          "type": "string"
        },
        {
          "internalType": "bool",
          "name": "isAnswered",
          "type": "bool"
        }
      ],
      "stateMutability": "view",
      "type": "function"
    },
    {
      "inputs": [
        {
          "internalType": "string",
          "name": "_username",
          "type": "string"
        }
      ],
      "name": "setUsername",
      "outputs": [],
      "stateMutability": "nonpayable",
      "type": "function"
    },
    {
      "inputs": [
        {
          "internalType": "address",
          "name": "_to",
          "type": "address"
        },
        {
          "internalType": "string",
          "name": "_question",
          "type": "string"
        }
      ],
      "name": "submitQuestion",
      "outputs": [],
      "stateMutability": "nonpayable",
      "type": "function"
    },
    {
      "inputs": [],
      "name": "totalAnswers",
      "outputs": [
        {
          "internalType": "uint256",
          "name": "",
          "type": "uint256"
        }
      ],
      "stateMutability": "view",
      "type": "function"
    },
    {
      "inputs": [],
      "name": "totalQuestions",
      "outputs": [
        {
          "internalType": "uint256",
          "name": "",
          "type": "uint256"
        }
      ],
      "stateMutability": "view",
      "type": "function"
    },
    {
      "inputs": [
        {
          "internalType": "address",
          "name": "",
          "type": "address"
        }
      ],
      "name": "usernames",
      "outputs": [
        {
          "internalType": "string",
          "name": "",
          "type": "string"
        }
      ],
      "stateMutability": "view",
      "type": "function"
    }
  ],
  "bytecode": "0x608060405234801561001057600080fd5b506000808190555060006001819055506118578061002f6000396000f3fe608060405234801561001057600080fd5b50600436106100935760003560e01c80638327109111610066578063832710911461011e578063bea5b91414610152578063d50e4f8d14610170578063ed59313a146101a0578063ee91877c146101bc57610093565b8063447e52a01461009857806350743176146100b45780636419ad3b146100d05780637d087705146100ee575b600080fd5b6100b260048036038101906100ad9190610e68565b6101ec565b005b6100ce60048036038101906100c99190610f22565b610389565b005b6100d86105a9565b6040516100e59190610f8d565b60405180910390f35b61010860048036038101906101039190610fa8565b6105af565b60405161011591906111cc565b60405180910390f35b610138600480360381019061013391906111ee565b6107ec565b604051610149959493929190611296565b60405180910390f35b61015a61097c565b6040516101679190610f8d565b60405180910390f35b61018a600480360381019061018591906111ee565b610982565b6040516101979190611374565b60405180910390f35b6101ba60048036038101906101b59190611396565b610ba1565b005b6101d660048036038101906101d19190610fa8565b610bf1565b6040516101e391906113df565b60405180910390f35b60001515600360003373ffffffffffffffffffffffffffffffffffffffff1673ffffffffffffffffffffffffffffffffffffffff168152602001908152602001600020838154811061024157610240611401565b5b906000526020600020906005020160040160009054906101000a900460ff161515146102a2576040517f08c379a00000000000000000000000000000000000000000000000000000000081526004016102999061147c565b60405180910390fd5b6000600360003373ffffffffffffffffffffffffffffffffffffffff1673ffffffffffffffffffffffffffffffffffffffff16815260200190815260200160002083815481106102f5576102f4611401565b5b906000526020600020906005020190508181600301908161031691906116a8565b5060018160040160006101000a81548160ff0219169083151502179055503373ffffffffffffffffffffffffffffffffffffffff167f3bd63a79aded6bb09f1707366546b2beebb73f5f45bb7885f3d6d786de67f455848460405161037c92919061177a565b60405180910390a2505050565b6000600360008473ffffffffffffffffffffffffffffffffffffffff1673ffffffffffffffffffffffffffffffffffffffff168152602001908152602001600020805490509050600360008473ffffffffffffffffffffffffffffffffffffffff1673ffffffffffffffffffffffffffffffffffffffff1681526020019081526020016000206040518060a001604052808381526020013373ffffffffffffffffffffffffffffffffffffffff1681526020018481526020016040518060200160405280600081525081526020016000151581525090806001815401808255809150506001900390600052602060002090600502016000909190919091506000820151816000015560208201518160010160006101000a81548173ffffffffffffffffffffffffffffffffffffffff021916908373ffffffffffffffffffffffffffffffffffffffff16021790555060408201518160020190816104ed91906116a8565b50606082015181600301908161050391906116a8565b5060808201518160040160006101000a81548160ff02191690831515021790555050508273ffffffffffffffffffffffffffffffffffffffff163373ffffffffffffffffffffffffffffffffffffffff167fba3096b66e7f5f9b08fe066e0f1bdca5641059ee658352be462b440fc97de666838560405161058592919061177a565b60405180910390a360008081548092919061059f906117d9565b9190505550505050565b60015481565b6060600360008373ffffffffffffffffffffffffffffffffffffffff1673ffffffffffffffffffffffffffffffffffffffff168152602001908152602001600020805480602002602001604051908101604052809291908181526020016000905b828210156107e157838290600052602060002090600502016040518060a0016040529081600082015481526020016001820160009054906101000a900473ffffffffffffffffffffffffffffffffffffffff1673ffffffffffffffffffffffffffffffffffffffff1673ffffffffffffffffffffffffffffffffffffffff1681526020016002820180546106a3906114cb565b80601f01602080910402602001604051908101604052809291908181526020018280546106cf906114cb565b801561071c5780601f106106f15761010080835404028352916020019161071c565b820191906000526020600020905b8154815290600101906020018083116106ff57829003601f168201915b50505050508152602001600382018054610735906114cb565b80601f0160208091040260200160405190810160405280929190818152602001828054610761906114cb565b80156107ae5780601f10610783576101008083540402835291602001916107ae565b820191906000526020600020905b81548152906001019060200180831161079157829003601f168201915b505050505081526020016004820160009054906101000a900460ff16151515158152505081526020019060010190610610565b505050509050919050565b6003602052816000526040600020818154811061080857600080fd5b9060005260206000209060050201600091509150508060000154908060010160009054906101000a900473ffffffffffffffffffffffffffffffffffffffff1690806002018054610858906114cb565b80601f0160208091040260200160405190810160405280929190818152602001828054610884906114cb565b80156108d15780601f106108a6576101008083540402835291602001916108d1565b820191906000526020600020905b8154815290600101906020018083116108b457829003601f168201915b5050505050908060030180546108e6906114cb565b80601f0160208091040260200160405190810160405280929190818152602001828054610912906114cb565b801561095f5780601f106109345761010080835404028352916020019161095f565b820191906000526020600020905b81548152906001019060200180831161094257829003601f168201915b5050505050908060040160009054906101000a900460ff16905085565b60005481565b61098a610c91565b6000600360008573ffffffffffffffffffffffffffffffffffffffff1673ffffffffffffffffffffffffffffffffffffffff16815260200190815260200160002083815481106109dd576109dc611401565b5b90600052602060002090600502016040518060a0016040529081600082015481526020016001820160009054906101000a900473ffffffffffffffffffffffffffffffffffffffff1673ffffffffffffffffffffffffffffffffffffffff1673ffffffffffffffffffffffffffffffffffffffff168152602001600282018054610a66906114cb565b80601f0160208091040260200160405190810160405280929190818152602001828054610a92906114cb565b8015610adf5780601f10610ab457610100808354040283529160200191610adf565b820191906000526020600020905b815481529060010190602001808311610ac257829003601f168201915b50505050508152602001600382018054610af8906114cb565b80601f0160208091040260200160405190810160405280929190818152602001828054610b24906114cb565b8015610b715780601f10610b4657610100808354040283529160200191610b71565b820191906000526020600020905b815481529060010190602001808311610b5457829003601f168201915b505050505081526020016004820160009054906101000a900460ff16151515158152505090508091505092915050565b80600260003373ffffffffffffffffffffffffffffffffffffffff1673ffffffffffffffffffffffffffffffffffffffff1681526020019081526020016000209081610bed91906116a8565b5050565b60026020528060005260406000206000915090508054610c10906114cb565b80601f0160208091040260200160405190810160405280929190818152602001828054610c3c906114cb565b8015610c895780601f10610c5e57610100808354040283529160200191610c89565b820191906000526020600020905b815481529060010190602001808311610c6c57829003601f168201915b505050505081565b6040518060a0016040528060008152602001600073ffffffffffffffffffffffffffffffffffffffff16815260200160608152602001606081526020016000151581525090565b6000604051905090565b600080fd5b600080fd5b6000819050919050565b610cff81610cec565b8114610d0a57600080fd5b50565b600081359050610d1c81610cf6565b92915050565b600080fd5b600080fd5b6000601f19601f8301169050919050565b7f4e487b7100000000000000000000000000000000000000000000000000000000600052604160045260246000fd5b610d7582610d2c565b810181811067ffffffffffffffff82111715610d9457610d93610d3d565b5b80604052505050565b6000610da7610cd8565b9050610db38282610d6c565b919050565b600067ffffffffffffffff821115610dd357610dd2610d3d565b5b610ddc82610d2c565b9050602081019050919050565b82818337600083830152505050565b6000610e0b610e0684610db8565b610d9d565b905082815260208101848484011115610e2757610e26610d27565b5b610e32848285610de9565b509392505050565b600082601f830112610e4f57610e4e610d22565b5b8135610e5f848260208601610df8565b91505092915050565b60008060408385031215610e7f57610e7e610ce2565b5b6000610e8d85828601610d0d565b925050602083013567ffffffffffffffff811115610eae57610ead610ce7565b5b610eba85828601610e3a565b9150509250929050565b600073ffffffffffffffffffffffffffffffffffffffff82169050919050565b6000610eef82610ec4565b9050919050565b610eff81610ee4565b8114610f0a57600080fd5b50565b600081359050610f1c81610ef6565b92915050565b60008060408385031215610f3957610f38610ce2565b5b6000610f4785828601610f0d565b925050602083013567ffffffffffffffff811115610f6857610f67610ce7565b5b610f7485828601610e3a565b9150509250929050565b610f8781610cec565b82525050565b6000602082019050610fa26000830184610f7e565b92915050565b600060208284031215610fbe57610fbd610ce2565b5b6000610fcc84828501610f0d565b91505092915050565b600081519050919050565b600082825260208201905092915050565b6000819050602082019050919050565b61100a81610cec565b82525050565b61101981610ee4565b82525050565b600081519050919050565b600082825260208201905092915050565b60005b8381101561105957808201518184015260208101905061103e565b60008484015250505050565b60006110708261101f565b61107a818561102a565b935061108a81856020860161103b565b61109381610d2c565b840191505092915050565b60008115159050919050565b6110b38161109e565b82525050565b600060a0830160008301516110d16000860182611001565b5060208301516110e46020860182611010565b50604083015184820360408601526110fc8282611065565b915050606083015184820360608601526111168282611065565b915050608083015161112b60808601826110aa565b508091505092915050565b600061114283836110b9565b905092915050565b6000602082019050919050565b600061116282610fd5565b61116c8185610fe0565b93508360208202850161117e85610ff1565b8060005b858110156111ba578484038952815161119b8582611136565b94506111a68361114a565b925060208a01995050600181019050611182565b50829750879550505050505092915050565b600060208201905081810360008301526111e68184611157565b905092915050565b6000806040838503121561120557611204610ce2565b5b600061121385828601610f0d565b925050602061122485828601610d0d565b9150509250929050565b61123781610ee4565b82525050565b600082825260208201905092915050565b60006112598261101f565b611263818561123d565b935061127381856020860161103b565b61127c81610d2c565b840191505092915050565b6112908161109e565b82525050565b600060a0820190506112ab6000830188610f7e565b6112b8602083018761122e565b81810360408301526112ca818661124e565b905081810360608301526112de818561124e565b90506112ed6080830184611287565b9695505050505050565b600060a08301600083015161130f6000860182611001565b5060208301516113226020860182611010565b506040830151848203604086015261133a8282611065565b915050606083015184820360608601526113548282611065565b915050608083015161136960808601826110aa565b508091505092915050565b6000602082019050818103600083015261138e81846112f7565b905092915050565b6000602082840312156113ac576113ab610ce2565b5b600082013567ffffffffffffffff8111156113ca576113c9610ce7565b5b6113d684828501610e3a565b91505092915050565b600060208201905081810360008301526113f9818461124e565b905092915050565b7f4e487b7100000000000000000000000000000000000000000000000000000000600052603260045260246000fd5b7f5175657374696f6e20616c726561647920616e73776572656400000000000000600082015250565b600061146660198361123d565b915061147182611430565b602082019050919050565b6000602082019050818103600083015261149581611459565b9050919050565b7f4e487b7100000000000000000000000000000000000000000000000000000000600052602260045260246000fd5b600060028204905060018216806114e357607f821691505b6020821081036114f6576114f561149c565b5b50919050565b60008190508160005260206000209050919050565b60006020601f8301049050919050565b600082821b905092915050565b60006008830261155e7fffffffffffffffffffffffffffffffffffffffffffffffffffffffffffffffff82611521565b6115688683611521565b95508019841693508086168417925050509392505050565b6000819050919050565b60006115a56115a061159b84610cec565b611580565b610cec565b9050919050565b6000819050919050565b6115bf8361158a565b6115d36115cb826115ac565b84845461152e565b825550505050565b600090565b6115e86115db565b6115f38184846115b6565b505050565b5b818110156116175761160c6000826115e0565b6001810190506115f9565b5050565b601f82111561165c5761162d816114fc565b61163684611511565b81016020851015611645578190505b61165961165185611511565b8301826115f8565b50505b505050565b600082821c905092915050565b600061167f60001984600802611661565b1980831691505092915050565b6000611698838361166e565b9150826002028217905092915050565b6116b18261101f565b67ffffffffffffffff8111156116ca576116c9610d3d565b5b6116d482546114cb565b6116df82828561161b565b600060209050601f8311600181146117125760008415611700578287015190505b61170a858261168c565b865550611772565b601f198416611720866114fc565b60005b8281101561174857848901518255600182019150602085019450602081019050611723565b868310156117655784890151611761601f89168261166e565b8355505b6001600288020188555050505b505050505050565b600060408201905061178f6000830185610f7e565b81810360208301526117a1818461124e565b90509392505050565b7f4e487b7100000000000000000000000000000000000000000000000000000000600052601160045260246000fd5b60006117e482610cec565b91507fffffffffffffffffffffffffffffffffffffffffffffffffffffffffffffffff8203611816576118156117aa565b5b60018201905091905056fea2646970667358221220860a0061e3e88be86797e19020d779e68cefc046ce9e30d6517041718571e01364736f6c63430008110033",
  "linkReferences": {},
  "deployedLinkReferences": {}
}